:100000000C945D000C9485000C9485000C94850084
:100010000C9485000C9485000C9485000C9485004C
:100020000C9485000C9485000C9453040C9485006A
:100030000C9485000C94CD040C9485000C948500E0
:100040000C9409040C9485000C94D7030C94B10310
:100050000C9485000C9485000C9485000C9485000C
:100060000C9485000C9485000000000024002700FB
:100070002A0000000000250028002B0004040404CE
:100080000404040402020202020203030303030342
:10009000010204081020408001020408102001021F
:1000A00004081020000000080002010000030407FB
:1000B0000000000000000000B00711241FBECFEFB9
:1000C000D8E0DEBFCDBF11E0A0E0B1E0EEE9F4E1A1
:1000D00002C005900D92A632B107D9F722E0A6E240
:1000E000B1E001C01D92AE32B207E1F710E0CDE5FC
:1000F000D0E004C02197FE010E94420ACC35D1070E
:10010000C9F70E94E4040C944D0A0C940000CF92AD
:10011000DF92EF92FF920F931F93CF93DF936C01C7
:100120007A018B01C0E0D0E0CE15DF0589F0D8015F
:100130006D918D01D601ED91FC910190F081E02D42
:10014000C6010995892B11F47E0102C02196ECCFDE
:10015000C701DF91CF911F910F91FF90EF90DF903A
:10016000CF900895089580E090E00895FC01538DAC
:10017000448D252F30E0842F90E0821B930B541781
:1001800010F0CF96089501970895FC01918D828D0E
:10019000981761F0828DDF01A80FB11D5D968C91DB
:1001A000928D9F5F9F73928F90E008958FEF9FEFE6
:1001B0000895FC01918D828D981731F0828DE80FA2
:1001C000F11D858D90E008958FEF9FEF0895FC015C
:1001D000918D228D892F90E0805C9F4F821B910929
:1001E0008F739927089581E991E00E94E70021E04B
:1001F000892B09F420E0822F0895FC01848DDF0112
:10020000A80FB11DA35ABF4F2C91848D90E0019689
:100210008F739927848FA689B7892C93A089B18978
:100220008C9180648C93938D848D981306C0028882
:10023000F389E02D80818F7D80830895EF92FF9276
:100240000F931F93CF93DF93EC0181E0888F9B8DF9
:100250008C8D981305C0E889F989808185FD24C0BB
:10026000F62E0B8D10E00F5F1F4F0F731127E02E3E
:100270008C8DE8120CC00FB607FCFACFE889F9891B
:10028000808185FFF5CFCE010E94FD00F1CF8B8DDF
:10029000FE01E80FF11DE35AFF4FF0820B8FEA8950
:1002A000FB898081806207C0EE89FF896083E889CD
:1002B000F98980818064808381E090E0DF91CF9133
:1002C0001F910F91FF90EF900895CF93DF93EC0172
:1002D000888D8823C9F0EA89FB89808185FD05C066
:1002E000A889B9898C9186FD0FC00FB607FCF5CFA0
:1002F000808185FFF2CFA889B9898C9185FFEDCFE8
:10030000CE010E94FD00E7CFDF91CF91089580E0FC
:1003100090E0892B29F00E94F30081110C940000D9
:10032000089590E0FC01EC55FF4F3491FC01E0573B
:10033000FF4F2491FC01E458FF4FE491EE2309F4B0
:100340003BC0332339F1333091F038F43130A9F028
:10035000323001F584B58F7D12C0373091F03830DE
:10036000A1F03430B9F4809180008F7D03C080917A
:1003700080008F77809380000DC084B58F7784BD17
:1003800009C08091B0008F7703C08091B0008F7D4D
:100390008093B000F0E0EE0FFF1FEE58FF4FA591E5
:1003A000B4918FB7F894EC91611103C020952E237E
:1003B00001C02E2B2C938FBF0895CF93DF9390E035
:1003C000FC01E057FF4F2491FC01E458FF4F84915A
:1003D000882361F190E0880F991FFC01E859FF4FD5
:1003E000C591D491FC01EE58FF4FA591B4916111D4
:1003F00009C09FB7F8948881209582238883EC9167
:100400002E230BC0623061F49FB7F8943881822F9D
:10041000809583238883EC912E2B2C939FBF06C05D
:100420008FB7F894E8812E2B28838FBFDF91CF916F
:1004300008951F93CF93DF93182FEB0161E00E9483
:10044000DD01209711F460E004C0CF3FD10539F4FD
:1004500061E0812FDF91CF911F910C949101E12FE9
:10046000F0E0EC55FF4FE491E330F9F048F4E1306F
:10047000B9F0E230A1F584B5806284BDC8BD34C056
:10048000E730E9F0E83019F1E43049F58091800077
:10049000806280938000D0938B00C0938A0024C038
:1004A00084B5806884BDC7BD1FC08091800080680E
:1004B00080938000D0938900C093880015C08091FC
:1004C000B00080688093B000C093B3000DC08091ED
:1004D000B00080628093B000C093B40005C0C03803
:1004E000D1050CF0B5CFAFCFDF91CF911F9108951B
:1004F000009769F0FC0101900020E9F73197AF0106
:10050000481B590BBC0181E991E00C94870080E005
:1005100090E008958F929F92AF92BF920F931F9396
:10052000CF93DF93CDB7DEB7A1970FB6F894DEBFB8
:100530000FBECDBF19A2423008F44AE08E010F5D14
:100540001F4F842E912CA12CB12CA50194010E9447
:10055000200AE62FB901CA0101501109EA3014F44A
:10056000E05D01C0E95CD801EC93232B242B252B03
:1005700061F7C8010E947802A1960FB6F894DEBF19
:100580000FBECDBFDF91CF911F910F91BF90AF9064
:100590009F908F9008954F925F926F927F928F926B
:1005A0009F92AF92BF92CF92DF92EF92FF926B0138
:1005B0007C01B42E9B01AC010E941B0A882319F018
:1005C00082E191E027C026013701E89477F82FEF08
:1005D0003FEF4FE75FE7C301B2010E941B0A8111A1
:1005E0000DC02FEF3FEF4FE75FE7C301B2010E945D
:1005F0004A0818161CF486E191E00CC02FEF3FEF7B
:100600004FE75FE4C701B6010E94A909181684F4F8
:100610008AE191E0FF90EF90DF90CF90BF90AF9094
:100620009F908F907F906F905F904F900C94780286
:100630002FEF3FEF4FE75FECC701B6010E944A087A
:1006400087FDE6CF20E030E0A901C701B6010E9496
:100650004A0887FF11C0E0919101F0919201019049
:10066000F081E02D6DE281E991E009954C01F7FA06
:10067000F094F7F8F09402C0812C912CA12C60E04A
:1006800070E080E09FE3AB1441F020E030E040E216
:1006900051E40E944F08A394F6CF9B01AC01C7011F
:1006A000B6010E94DE072B013C010E94C8086B01C5
:1006B0007C010E94F7089B01AC01C301B2010E94BA
:1006C000DD072B013C014AE0C701B6010E948A0206
:1006D0007C01E80CF91CBB2069F0E0919101F091DC
:1006E00092010190F081E02D6EE281E991E009959F
:1006F000E80EF91EDB2CDD2021F120E030E040E2A5
:1007000051E4C301B2010E94AE092B013C010E94D9
:10071000C8084B01A12CB12C4AE0C501B4010E94CC
:100720008A02E80EF91EC501B4010E94F7089B0178
:10073000AC01C301B2010E94DD072B013C01DA9438
:10074000DACFC701FF90EF90DF90CF90BF90AF90CE
:100750009F908F907F906F905F904F9008950E9430
:10076000480A1F920F920FB60F9211242F933F93B6
:100770004F935F936F937F938F939F93AF93BF93A9
:10078000EF93FF9381E991E00E94FD00FF91EF91CB
:10079000BF91AF919F918F917F916F915F914F9199
:1007A0003F912F910F900FBE0F901F9018951F92A1
:1007B0000F920FB60F9211242F938F939F93EF9365
:1007C000FF93E091A101F091A2018081E091A70146
:1007D000F091A80182FD12C090818091AA018F5FE3
:1007E0008F732091AB01821751F0E091AA01F0E0E4
:1007F000EF56FE4F958F8093AA0101C08081FF9133
:10080000EF919F918F912F910F900FBE0F901F909E
:1008100018951F920F920FB60F9211242F933F93AA
:100820008F939F93AF93BF938091650190916601E1
:10083000A0916701B091680130912A0123E0230F54
:100840002D3720F40196A11DB11D05C026E8230F08
:100850000296A11DB11D20932A01809365019093FA
:100860006601A0936701B093680180912601909181
:100870002701A0912801B09129010196A11DB11D68
:100880008093260190932701A0932801B09329011A
:10089000BF91AF919F918F913F912F910F900FBE7C
:1008A0000F901F9018951F920F920FB60F92112460
:1008B0000F931F932F933F934F935F936F937F9368
:1008C0008F939F93AF93BF93EF93FF9340918600D5
:1008D00050918700B09B04C041150FEF5007F0F115
:1008E0008091310190913201A0E0B0E0DC019927C4
:1008F000882760E070E0842B952BA62BB72B4091C6
:100900002D0150912E0160912F01709130018C01C9
:100910009D01041B150B260B370BB901A801809311
:100920002D0190932E01A0932F01B093300180915F
:1009300064018F5F8C3008F080E09091630189172B
:10094000C9F014E0819FF0011124ED5CFE4F40835B
:10095000518362837383809364010CC081E086BB02
:1009600080913101909132010196909332018093F0
:100970003101B6CFFF91EF91BF91AF919F918F91D0
:100980007F916F915F914F913F912F911F910F91A7
:100990000F900FBE0F901F9018951F920F920FB6D9
:1009A0000F9211248F939F93809131019091320186
:1009B000019690933201809331019F918F910F9016
:1009C0000FBE0F901F901895789484B5826084BDF7
:1009D00084B5816084BD85B5826085BD85B5816043
:1009E00085BD80916E00816080936E0010928100C1
:1009F000809181008260809381008091810081607C
:100A0000809381008091800081608093800080913C
:100A1000B10084608093B1008091B00081608093C8
:100A2000B00080917A00846080937A0080917A008F
:100A3000826080937A0080917A00816080937A004E
:100A400080917A00806880937A001092C100E091D2
:100A5000A101F091A20182E08083E091A101F091D7
:100A6000A2011082E0919D01F0919E011082E0911F
:100A70009F01F091A00180E180831092A901E09193
:100A8000A501F091A60186E08083E091A301F09199
:100A9000A401808180618083E091A301F091A40191
:100AA000808188608083E091A301F091A40180811E
:100AB00080688083E091A301F091A40180818F7D03
:100AC000808361E083E00E94DD0160E088E00E94B5
:100AD000DD0161E08BE00E94DD018091B100887F43
:100AE00081608093B1008091800080932C0180917F
:100AF000810080932B01109281001092800010924F
:100B000085001092840081E286BB80936F00109272
:100B100032011092310110922D0110922E0110928B
:100B20002F0110923001109264011092630181EC48
:100B300080938100412C512C20E9622E20E4722EFA
:100B4000C4E48091640190916301891708F4845F83
:100B5000891B2FB7882309F487C0F8948091650119
:100B600090916601A0916701B09168012FBF8093B9
:100B70008D0190938E01A0938F01B0939001C0904E
:100B80008901D0908A01E0908B01F0908C019091C6
:100B90006401809163019817A1F08F5F8C3008F099
:100BA00080E094E0899FF0011124ED5CFE4F4081CC
:100BB00051816281738180936301342F252FCB0192
:100BC00004C03FEF2FEF8FEF9FEF632F722F0E9434
:100BD000F7089B01AC01C701B6010E94DE076B015B
:100BE0007C016093890170938A0180938B019093BB
:100BF0008C0160918701709188016F5F7F4F7093C6
:100C00008801609387016F3171050CF457C0072E7E
:100C1000000C880B990B0E94F9089B01AC01C701DD
:100C2000B6010E944F080E94C8080E94F7089B0165
:100C3000AC0160E074E284E79BE40E944F0860939B
:100C400083017093840180938501909386011092B3
:100C5000890110928A0110928B0110928C011092DE
:100C60008801109287012AC0F894809165019091C3
:100C70006601A0916701B09168012FBF80937F0149
:100C800090938001A0938101B093820140918D01E6
:100C900050918E0160918F0170919001841B950B92
:100CA000A60BB70BC297A105B10540F010928301C6
:100CB000109284011092850110928601C0908301E8
:100CC000D0908401E0908501F090860120E030E032
:100CD00048E452E4C701B6010E944A0887FF09C0F0
:100CE00040927B0150927C0160927D0170927E0166
:100CF00016C020E030E046E153E4C701B6010E948F
:100D0000A9091816ACF480E090E0A0EAB0E4809362
:100D10007B0190937C01A0937D01B0937E011092A2
:100D20007701109278011092790110927A0143C0F4
:100D300020E030E048E452E4C701B6010E94DD073C
:100D400060937701709378018093790190937A0191
:100D50002DEC3CEC4CEC5CE30E94AE0920E030E072
:100D600040E05FE30E94DE076B017C0120E030E0A1
:100D700040E05FE30E944A0887FD10C020E030E0B9
:100D800040E450E4C701B6010E94A90918165CF4BA
:100D9000C12CD12C80E4E82EFE2C05C0C12CD12C16
:100DA000E12C9FE3F92EC0927B01D0927C01E0926E
:100DB0007D01F0927E0120E030E04CE452E460914D
:100DC0007B0170917C0180917D0190917E010E9458
:100DD000AE090E94C1087093760160937501C093BB
:100DE0007C0080917A00806480937A0080917A0000
:100DF00086FDFCCF609178008091790070E0782BBF
:100E00007093740160937301072E000C880B990B8B
:100E10000E94F90820E030EC4FE754E40E944F08AC
:100E200020E030E040EA50E40E94AE096B017C0112
:100E300060936F01709370018093710190937201C0
:100E40008090770190907801A0907901B0907A011C
:100E500020E030E040EA51E4C501B4010E944A08B4
:100E600018162CF02AE939E949E15FE32BC020E0AC
:100E700030E048EA52E4C501B4010E94A90987FDA7
:100E800009C0C0926B01D0926C01E0926D01F092AA
:100E90006E0124C0A501940160E070E088EA92E44C
:100EA0000E94DD072DEC3CEC4CEC5BE30E94AE09AC
:100EB0009B01AC0160E070E080E89FE30E94DD07E9
:100EC0009B01AC01C701B6010E94AE0960936B01A2
:100ED00070936C0180936D0190936E0120E030E07F
:100EE0004CE452E460916B0170916C0180916D0152
:100EF00090916E010E94AE090E94C1086B017C01B5
:100F000070936A0160936901609175017091760137
:100F10008BE00E941902B60183E00E9419026091E1
:100F2000830170918401809185019091860142E056
:100F30000E94CB028EE191E00E94780260917B01D9
:100F400070917C0180917D0190917E0142E00E9430
:100F5000CB0283E291E00E9478020E948701F1CDEA
:100F6000E1E9F1E01382128288EE93E0A0E0B0E0C4
:100F700084839583A683B78384E091E09183808303
:100F800085EC90E09587848784EC90E0978786874E
:100F900080EC90E0918B808B81EC90E0938B828B46
:100FA00082EC90E0958B848B86EC90E0978B868B1F
:100FB000118E128E138E148E08955058BB27AA27B7
:100FC0000E94F5070C946F090E94610938F00E9495
:100FD000680920F039F49F3F19F426F40C945E0957
:100FE0000EF4E095E7FB0C945809E92F0E94800964
:100FF00058F3BA17620773078407950720F079F44E
:10100000A6F50C94A2090EF4E0950B2EBA2FA02D94
:101010000B01B90190010C01CA01A0011124FF27A5
:10102000591B99F0593F50F4503E68F11A16F040A0
:10103000A22F232F342F4427585FF3CF469537959F
:101040002795A795F0405395C9F77EF41F16BA0B64
:10105000620B730B840BBAF09150A1F0FF0FBB1F12
:10106000661F771F881FC2F70EC0BA0F621F731F5B
:10107000841F48F4879577956795B795F7959E3FB8
:1010800008F0B0CF9395880F08F09927EE0F979549
:10109000879508950E94340908F481E008950E941C
:1010A00063080C946F090E94680958F00E94610956
:1010B00040F029F45F3F29F00C94580951110C9429
:1010C000A3090C945E090E94800968F39923B1F387
:1010D000552391F3951B550BBB27AA27621773075E
:1010E000840738F09F5F5F4F220F331F441FAA1FF2
:1010F000A9F335D00E2E3AF0E0E832D091505040AE
:10110000E695001CCAF72BD0FE2F29D0660F771F5B
:10111000881FBB1F261737074807AB07B0E809F041
:10112000BB0B802DBF01FF2793585F4F3AF09E3FC6
:10113000510578F00C9458090C94A3095F3FE4F32F
:10114000983ED4F3869577956795B795F7959F5F09
:10115000C9F7880F911D9695879597F90895E1E055
:10116000660F771F881FBB1F621773078407BA07B4
:1011700020F0621B730B840BBA0BEE1F88F7E0950F
:1011800008950E94C8086894B1110C94A3090895A9
:101190000E94880988F09F5798F0B92F9927B75176
:1011A000B0F0E1F0660F771F881F991F1AF0BA950B
:1011B000C9F714C0B13091F00E94A209B1E00895BE
:1011C0000C94A209672F782F8827B85F39F0B93FB0
:1011D000CCF3869577956795B395D9F73EF49095BE
:1011E0008095709561957F4F8F4F9F4F0895E8943C
:1011F00009C097FB3EF490958095709561957F4F5F
:101200008F4F9F4F9923A9F0F92F96E9BB2793950C
:10121000F695879577956795B795F111F8CFFAF41C
:10122000BB0F11F460FF1BC06F5F7F4F8F4F9F4F4D
:1012300016C0882311F096E911C0772321F09EE8AB
:10124000872F762F05C0662371F096E8862F70E011
:1012500060E02AF09A95660F771F881FDAF7880FEB
:101260009695879597F90895990F0008550FAA0B41
:10127000E0E8FEEF16161706E807F907C0F01216A9
:101280001306E407F50798F0621B730B840B950BAC
:1012900039F40A2661F0232B242B252B21F4089501
:1012A0000A2609F4A140A6958FEF811D811D08959E
:1012B00097F99F6780E870E060E008959FEF80EC09
:1012C000089500240A9416161706180609060895AC
:1012D00000240A9412161306140605060895092E12
:1012E0000394000C11F4882352F0BB0F40F4BF2B81
:1012F00011F460FF04C06F5F7F4F8F4F9F4F0895C1
:1013000057FD9058440F551F59F05F3F71F04795B6
:10131000880F97FB991F61F09F3F79F0879508959B
:10132000121613061406551FF2CF4695F1DF08C0BA
:10133000161617061806991FF1CF869571056105D7
:1013400008940895E894BB2766277727CB0197F97F
:1013500008950E94340908F48FEF08950E94C1098E
:101360000C946F090E94610938F00E94680920F00E
:10137000952311F00C9458090C945E0911240C94D7
:10138000A3090E94800970F3959FC1F3950F50E067
:10139000551F629FF001729FBB27F00DB11D639F27
:1013A000AA27F00DB11DAA1F649F6627B00DA11DCD
:1013B000661F829F2227B00DA11D621F739FB00D73
:1013C000A11D621F839FA00D611D221F749F3327E3
:1013D000A00D611D231F849F600D211D822F762F7C
:1013E0006A2F11249F5750409AF0F1F088234AF059
:1013F000EE0FFF1FBB1F661F771F881F91505040C5
:10140000A9F79E3F510580F00C9458090C94A3094C
:101410005F3FE4F3983ED4F3869577956795B7954B
:10142000F795E7959F5FC1F7FE2B880F911D969565
:10143000879597F908950E943409880B990B0895B0
:10144000A1E21A2EAA1BBB1BFD010DC0AA1FBB1FC8
:10145000EE1FFF1FA217B307E407F50720F0A21B3A
:10146000B30BE40BF50B661F771F881F991F1A94A7
:1014700069F760957095809590959B01AC01BD01D1
:10148000CF010895EE0FFF1F0590F491E02D099410
:0E14900081E090E0F8940C944D0AF894FFCFA0
:10149E00000000001E018700B6006501E700C500D0
:1014AE00D9006E616E00696E66006F766600487ACE
:0614BE0020200056000092
:00000001FF
